:100000000C945D000C9485000C9485000C94850084
:100010000C9485000C9485000C9485000C9485004C
:100020000C9485000C9485000C9485000C9485003C
:100030000C9485000C9485000C9485000C9485002C
:100040000C943D0B0C9485000C9485000C94850059
:100050000C9485000C9485000C9485000C9485000C
:100060000C9485000C94850000000008000201003B
:100070000003040700000000000000000000000072
:10008000250028002B0000000000240027002A0083
:10009000040404040404040402020202020203032E
:1000A0000303030301020408102040800102040836
:1000B0001020010204081020E11211241FBECFEF0E
:1000C000D8E0DEBFCDBF14E0A0E0B1E0E4E5F1E3AD
:1000D00002C005900D92AC37B107D9F725E0ACE727
:1000E000B4E001C01D92A031B207E1F710E0CDE508
:1000F000D0E004C02197FE010E949616CC35D107AE
:10010000C9F70E94890E0C94A8180C9400004F9215
:100110005F926F927F928F929F92AF92BF92CF9297
:10012000DF92EF92FF92CF93DF9300D000D0CDB754
:10013000DEB78091C6049091C704A091C804B09125
:10014000C904C090CA04D090CB04E090CC04F090D5
:10015000CD04BC01CD016C197D098E099F09609306
:10016000C2047093C3048093C4049093C50420E830
:100170003EEE46E350E00E94251549015A0120E673
:100180003AEE40E050E00E94251569017A0128EE20
:1001900033E040E050E00E94251529833A834B83E9
:1001A0005C830E949D132B013C0160E080E00E9473
:1001B000310D88E891E00E942F0D61E080E00E94FF
:1001C000310DB401990C880B990B0E949F1340E0EC
:1001D0000E94B50D8BE991E00E942F0DB601DD0C58
:1001E000880B990B0E949F1340E00E94B50D8EE989
:1001F00091E00E942F0D29813A81B901330F880BBC
:10020000990B0E949F1340E00E94B50D81EA91E096
:100210000E942F0D40E0C301B2010E94B50D84EA97
:1002200091E00E942F0D20E030E049E754E4C30143
:10023000B2010E94641687FD16C084EF94E00F900F
:100240000F900F900F90DF91CF91FF90EF90DF9084
:10025000CF90BF90AF909F908F907F906F905F9066
:100260004F900C94100C0F900F900F900F90DF9107
:10027000CF91FF90EF90DF90CF90BF90AF909F9085
:100280008F907F906F905F904F900895EE24E3944D
:10029000F12C00E010E0C0E0D0E081E0E816F104CD
:1002A00009F054C00E94310B8090D0049090D1048A
:1002B000A090D204B090D304DC01CB018819990935
:1002C000AA09BB0984369105A105B10560F00E9419
:1002D000310B6093D0047093D1048093D204909337
:1002E000D3040F5F1F4F0A30110579F460E080E0FE
:1002F0000E94310D87EA91E00E942F0D61E080E0BD
:100300000E94310D87EB91E019C00331110529F4EA
:1003100084EF94E00E94100C19C00431110589F497
:1003200060E080E00E94310D89EC91E00E942F0D89
:1003300061E080E00E94310D89ED91E00E942F0D77
:1003400005C00E31110511F400E010E00E94EE0C22
:100350006C018AE0C816D10434F484EF94E00E9462
:10036000100C0E9446018EE6C816D1045CF189E0AB
:10037000C81681E0D8064CF421966AEF70E080E060
:1003800090E00E94F70AE12CF12CC130D105B9F4BC
:100390000E94310B6093CA047093CB048093CC0409
:1003A0009093CD046AEF70E080E090E00E94F70A3D
:1003B00084EF94E00E94100CE12CF12C03C0C230B9
:1003C000D10579F40E94310B6093C6047093C70481
:1003D0008093C8049093C9040E948700C2E0D0E0D3
:1003E00004C0C330D10509F456CF84EAC81681E0B1
:1003F000D806CCF40E94310B6093CA047093CB04EE
:100400008093CC049093CD0468EC70E080E090E0A1
:100410000E94F70A84EF94E00E94100C8AEE91E0AB
:100420000E942F0D12C08AE8C81682E0D8060CF090
:1004300034CF0E94310B6093C6047093C70480933D
:10044000C8049093C9040E948700E12CF12C25CFA9
:10045000C1E0D0E062E084EF94E00E94540CD093BD
:10046000BE04C093BD04D093C104C093C00460E037
:1004700080E00E94310D8AEF91E00E942F0D61E033
:1004800080E00E94310D81E092E00E942F0D1092D9
:100490003301109232016AEF70E080E090E00E9438
:1004A000F70A84EF94E00E94100C6AEF70E080E09D
:1004B00090E00E94F70A0E94EE0C883E934054F6AA
:1004C0000E946302C7CFCF93DF93CDB7DEB76897A3
:1004D0000FB6F894DEBF0FBECDBF9AE0892E912CE7
:1004E000A12CB12C332433940E945513A5019401FF
:1004F0000E94BC142B013C0125E0420E511C611CE2
:10050000711C620162E084EF94E00E94540C00E0F0
:1005100010E084EF94E00E94100CE090C004F09092
:10052000C1040E94EE0C8C3091051CF43092BF0483
:1005300018C08E3691051CF41092BF0412C08A3088
:1005400021E092079CF3843A21E09207ACF38A38C9
:1005500092403CF481E09091BF04911180E080933F
:10056000BF048091BF04882331F0813031F4EE2440
:10057000E394F12C02C0E12CF12C6E2D802F0E940F
:10058000310D81E192E00E942F0D6091CE047091B7
:10059000CF04072E000C880B990B0E94F70A60917C
:1005A000BD04842D0E94310D8FEF91E00E942F0D2C
:1005B0006091CE047091CF04072E000C880B990B2C
:1005C0000E94F70AC016D10609F005C18091BD044A
:1005D0009091BE04E816F90609F0FDC084EF94E09E
:1005E0000E94100C60E080E00E94310D8091320189
:1005F000909133011C8A1B8A1E8A1D8A188E1F8ABD
:100600004AE08E010F5F1F4FB8010E946313F8018B
:1006100001900020E9F731977F01E01AF10AB70154
:10062000CE0143960E945C0A811105C0CE0143961B
:100630000E94830A07C0F88EEF8AB8018B899C89D3
:100640000E94A1181A8219821C821B821E821D829E
:100650006CE070E0C8010E945C0A811104C0C8010E
:100660000E94830A0AC08CE090E09E838D8363E140
:1006700072E089819A810E94A1188F89988DCB8818
:10068000DC88ED80FE80C114D10409F406C2009715
:10069000A1F0E80EF91EB701C8010E945C0A882388
:1006A00009F4FBC129813A818D819E81B601820FB7
:1006B000931F0E94A118FE82ED824D815E816981A7
:1006C0007A8184EF94E00E94060A89819A810E94CF
:1006D000311764EF71E080E090E00E94F70A84EF48
:1006E00094E00E94100C60E080E00E94310D80E2F6
:1006F00092E00E942F0D64EF71E080E090E00E9494
:10070000F70A84EF94E00E94100C60E080E00E9401
:10071000310D80E392E00E942F0D00913201109183
:1007200033010A3011053CF461E088E00E94310D8C
:10073000C8010E94870D00913201109133010A30E7
:1007400011053CF061E087E00E94310DC8010E9474
:10075000870D6CE271E080E090E00E94F70A84EF80
:1007600094E00E94100C60E080E00E94310D81E472
:1007700092E00E942F0D61E080E00E94310D81E542
:1007800092E00E942F0D109233011092320168EE18
:1007900073E080E090E00E94F70A84EF94E00E940A
:1007A000100C8EE690E09093CF048093CE0481E00D
:1007B00090E09093BE048093BD042091C0043091DA
:1007C000C104232B11F080E090E09093C10480934A
:1007D000C0040E9428020F5F1F4F0031110509F06D
:1007E00098CE80913201909133010196909333011C
:1007F000809332018330910519F08630910579F4A8
:1008000021E030E04091C0045091C104452B11F02B
:1008100020E030E03093C1042093C00436C089301A
:10082000910579F421E030E04091C0045091C10479
:10083000452B11F020E030E03093C1042093C00438
:1008400027C08C30910579F421E030E04091C0045C
:100850005091C104452B11F020E030E03093C104E9
:100860002093C00418C08F30910579F421E030E066
:100870004091C0045091C104452B11F020E030E0BC
:100880003093C1042093C0041BC08231910549F00C
:100890008531910531F08831910519F08B31910541
:1008A00079F481E090E02091C0043091C104232BC1
:1008B00011F080E090E09093C1048093C004A7C041
:1008C0004F9709F0A4C08EE690E09093CF048093F8
:1008D000CE0484EF94E00E94100C60E080E00E945F
:1008E000310D8DE592E00E942F0D03E010E0609144
:1008F00004056B7F60930405686084EF94E00E94B8
:100900000D0C62EC71E080E090E00E94F70A6091CB
:100910000405862F8460809304056C6084EF94E066
:100920000E940D0C66E272E080E090E00E94F70AFF
:1009300001501109E1F60DE010E068E184EF94E068
:100940000E940D0C66E970E080E090E00E94F70ADA
:100950000150110991F70DE110E06CE184EF94E092
:100960000E940D0C66E970E080E090E00E94F70ABA
:100970000150110991F700E110E068E184EF94E083
:100980000E940D0C66E970E080E090E00E94F70A9A
:100990000150110991F760E080E00E94310D8DE572
:1009A00092E00E942F0D61E080E00E94310D8EE602
:1009B00092E00E942F0D68EB7BE080E090E00E94C7
:1009C000F70A84EF94E00E94100C10923301109209
:1009D000320160E080E00E94310D8BE792E00E94DE
:1009E0002F0D61E080E00E94310D87E892E00E94C7
:1009F0002F0D0E94EE0C883E934014F40E94630277
:100A000064E670E080E090E00E94F70ADECF81E0CB
:100A100090E02091BD043091BE04232B11F080E0C2
:100A200090E09093BE048093BD048091CE04909199
:100A3000CF0403979093CF048093CE0484EF94E087
:100A40000E94100C60E080E00E94310D80E392E093
:100A50000E942F0D00913201109133010A301105CF
:100A60003CF461E088E00E94310DC8010E94870DCE
:100A700000913201109133010A3011053CF061E020
:100A800087E00E94310DC8010E94870D6CE271E081
:100A900080E090E00E94F70A27CDC8010E94830AF7
:100AA0000CCE1092BC041092BB041092BA041092A7
:100AB000B9041092B8041092B7048CE291E09093BC
:100AC000B6048093B5041092B4040E94EE0CBC01ED
:100AD000990F880B990B611571058105910511F02E
:100AE0000E945A1302E011E0C1E0B8018C2F0E946D
:100AF000010DCF5F085F1F4FC730B9F7E6E8F4E09C
:100B00008FEF9FEF8193919324E0E43AF207D1F7BE
:100B100062E084EF94E00E94540C0E94EE0C8A3054
:100B200091051CF48AE090E019C08E3691051CF402
:100B30008BE090E013C0893041E094071CF48AE117
:100B400090E00CC0843A21E092071CF48AE290E025
:100B500005C08A38924034F481E490E09093850493
:100B6000809384046091840470918504CB01770F95
:100B7000AA0BBB0BBC01CD01E2E0660F771F881FFB
:100B8000991FEA95D1F720E034E040E050E00E9460
:100B9000BC14309383042093820400E010E0CFE083
:100BA000D0E02091B7043091B804809182049091F4
:100BB0008304FC01EE0FFF1FE00FF11F232B61F0F8
:100BC000E259FE4F80818093A404E090BB04F09032
:100BD000BC0420E030E00BC0EA59FE4FF3CF80E2C6
:100BE000F901EC55FB4F80832F303105D9F0C90155
:100BF0008E0D9F1DBE010E946E16FC01EE0FFF1FA1
:100C0000EA57FB4F808191812F5F3F4F84309105E0
:100C100030F7FC01EE0FFF1FE00FF11FE25AFE4F0D
:100C20008081DECF602F80E00E94310D84EA94E065
:100C30000E942F0D0130110519F001E010E0B1CF35
:100C400060E081E00E94310D88E992E00E942F0D62
:100C500061E081E00E94310D82EA92E00E942F0D56
:100C600060ED77E080E090E00E94F70A812C14E0CC
:100C7000912EA12CB12C22242A9403E0302E0FE0D7
:100C800010E08CE0C82ED12CE12CF12C0E94310B0D
:100C90002B013C018091B7049091B804892B09F095
:100CA00063C00E94EE0C8A3091052CF430928504CA
:100CB0002092840416C020918404309185048E36DD
:100CC000910514F43A9505C0843A41E0940734F450
:100CD0003395309385042093840403C08A3892406E
:100CE0008CF3809184049091850497FF04C0109246
:100CF0008504109284048091840490918504811568
:100D0000944024F0309285042092840460918404FD
:100D100070918504CB01770FAA0BBB0BBC01CD01F1
:100D2000C2E0660F771F881F991FCA95D1F7A501EA
:100D300094010E94BC143093830420938204E091B8
:100D4000BB04F091BC04EE0FFF1FEA57FB4F81E09C
:100D500090E0608171816217730711F080E090E08C
:100D60009093B8048093B7048091B7049091B8042D
:100D7000892B09F4AEC08091B9049091BA04892BF3
:100D800009F089C040ED441A47E0540A610871082F
:100D90005092BA044092B904C0E0D0E02091B70468
:100DA0003091B8048091820490918304FC01EE0F8D
:100DB000FF1FEC0FFD1F232B61F0E259FE4F8081D6
:100DC0008093A4046090BB047090BC0420E030E0E9
:100DD0000BC0EA59FE4FF3CF80E2F901EC55FB4F0F
:100DE00080832F303105D9F0C901860D971DB801D8
:100DF0000E946E16FC01EE0FFF1FEA57FB4F808129
:100E000091812F5F3F4F8430910530F7FC01EE0F49
:100E1000FF1FEC0FFD1FE25AFE4F8081DECF6C2FCB
:100E200080E00E94310D84EA94E00E942F0D21970A
:100E300019F0C1E0D0E0B2CF84EF94E00E94100C32
:100E4000C2E0D0E060E080E00E94310D8FEA92E0E5
:100E50000E942F0D61E083E00E94310D809180049B
:100E6000909181040E94870D8FEB92E00E942F0DDC
:100E700068EE73E080E090E00E94F70A84EF94E06F
:100E80000E94100C219719F0C1E0D0E0DBCF109246
:100E900081041092800460E080E00E94310D87ECB4
:100EA00092E00E942F0D61E081E00E94310D88EDFB
:100EB00092E00E942F0D6AE070E080E090E00E94D6
:100EC000F70A0E94EE0C883E93400CF0DFCE0E94A1
:100ED00051058091BB049091BC040197B8010E9418
:100EE0006E16FC01EE0FFF1FEA57FB4FC081D18148
:100EF0000E945513A70196010E94BC14CB018C1BC4
:100F00009D0B01960397A0F38091BB049091BC04C4
:100F1000FC01EE0FFF1FEA57FB4F718360830196C0
:100F2000B8010E946E169093BC048093BB04C0E08D
:100F3000D0E02091B7043091B80480918204909160
:100F40008304FC01EE0FFF1FEC0FFD1F232B61F04C
:100F5000E259FE4F80818093A4046090BB0470909E
:100F6000BC0420E030E00BC0EA59FE4FF3CF80E232
:100F7000F901EC55FB4F80832F303105D9F0C901C1
:100F8000860D971DB8010E946E16FC01EE0FFF1F23
:100F9000EA57FB4F808191812F5F3F4F843091054D
:100FA00030F7FC01EE0FFF1FEC0FFD1FE25AFE4F62
:100FB0008081DECF6C2F80E00E94310D84EA94E0C6
:100FC0000E942F0D219719F0C1E0D0E0B2CFC0915F
:100FD000B504D091B604BE010D2E000C880B990B00
:100FE0000E94F70A80918004909181040196909369
:100FF000810480938004C739D1052CF02197D093C8
:10100000B604C093B504803F95450CF43FCE84EF01
:1010100094E00E94100CCAE0D0E060E080E00E9402
:10102000310D87EE92E00E942F0D61E080E00E947A
:10103000310D88EF92E00E942F0D64EF71E080E0A7
:1010400090E00E94F70A84EF94E00E94100C64EF95
:1010500071E080E090E00E94F70A2197F1F684EFBA
:1010600094E00E94100C60E080E00E94310D87E067
:1010700093E00E942F0D60ED77E080E090E00E9409
:10108000F70A84EF94E00E94100C60E080E00E9478
:10109000310D83E193E00E942F0D68EE73E080E054
:1010A00090E00E94F70AF2CD60E080E00E94310DEE
:1010B0008DE193E00E942F0D61E080E00E94310DF0
:1010C00088E293E00E942F0D6AEF70E080E090E0EC
:1010D0000E94F70A84EF94E00E94100C6AEF70E01F
:1010E00080E090E00E94F70A0E94EE0C883E934058
:1010F000DCF685E9882E912CA12CB12C6AEF70E0EA
:1011000080E090E00E94F70A60E080E00E94310DEC
:1011100060917F0470E080E090E04AE00E94460D1C
:1011200060E082E00E94310D88E393E00E942F0D81
:1011300060E083E00E94310D60917E0470E080E009
:1011400090E04AE00E94460D61E080E00E94310D8F
:101150006091010170E080E090E04AE00E94460D5D
:10116000C0917D0461E08C2F0E94310D61E084EF1D
:1011700094E00E94070CC0900001D12CE12CF12CCE
:10118000C701B6010E94F70A61E08C2F0E94310D61
:1011900062E084EF94E00E94070CC701B6010E9450
:1011A000F70A84EF94E00E94100C60E08EE00E9449
:1011B000310D63E084EF94E00E94070C60E085E06D
:1011C0000E94310D8AE393E00E942F0D0E94EE0CE5
:1011D000883E93400CF04FC060E08EE00E94310DDD
:1011E00060E084EF94E00E94070C61E08EE00E94D2
:1011F000310D63E084EF94E00E94070C80917D0440
:1012000060E08E30E1F480E00E94310D83E493E0F1
:101210000E942F0D61E080917D040E94310D64E0F9
:1012200084EF94E00E94070C80917F048F5F80938D
:101230007F048091010181508093010116C080E0FC
:101240000E94310D81E593E00E942F0D61E08091B5
:101250007D040E94310D62E084EF94E00E94070C4F
:1012600080917E048F5F80937E0468EB7BE080E05A
:1012700090E00E94F70A80917D048F5F803118F41E
:1012800080937D0402C010927D040E945513A50135
:1012900094010E94BC14DC01CB010196A11DB11D7B
:1012A0008093000180917E04833009F046C084EF72
:1012B00094E00E94100C60E080E00E94310D81E417
:1012C00092E00E942F0D61E080E00E94310D8FE5D9
:1012D00093E00E942F0D68EB7BE080E090E00E949D
:1012E000F70A84EF94E00E94100C60E083E00E9413
:1012F000310D8CE693E00E942F0D80917F04909138
:101300007E04891B80937C0461E083E00E94310DA0
:1013100088E793E00E942F0D61E08CE00E94310D80
:1013200060917C0470E080E090E04AE00E94460D0D
:1013300068EB7BE080E090E05AC080910101811170
:10134000DDCE84EF94E00E94100C60E083E00E9408
:10135000310DCAE0D0E060E080E00E94310D81E80C
:1013600093E00E942F0D61E080E00E94310D80E942
:1013700093E00E942F0D6CE271E080E090E00E940B
:10138000F70A84EF94E00E94100C6CE271E080E0B8
:1013900090E00E94F70A2197F1F680917E04811176
:1013A00003C08DE993E002C08BEA93E00E942F0D09
:1013B00080917F0490917E04891B80937C0461E07E
:1013C00083E00E94310D88E793E00E942F0D61E0D9
:1013D0008CE00E94310D60917C0470E080E090E030
:1013E0004AE00E94460D68E57BE180E090E00E94C3
:1013F000F70A10927F0487E08093010110927E0427
:1014000084EF94E00E94100C0E945408CF92DF9267
:10141000EF92FF920F931F93CF93DF936C017A01AA
:101420008B01C0E0D0E0CE15DF0589F0D8016D91C9
:101430008D01D601ED91FC910190F081E02DC60166
:101440000995892B11F47E0102C02196ECCFC701CA
:10145000DF91CF911F910F91FF90EF90DF90CF9090
:1014600008953FB7F8948091D9049091DA04A0913F
:10147000DB04B091DC0426B5A89B05C02F3F19F012
:101480000196A11DB11D3FBFBA2FA92F982F882704
:10149000820F911DA11DB11DBC01CD0142E0660F5F
:1014A000771F881F991F4A95D1F70895089580E006
:1014B00090E008950E9493180F931F93CF93DF93AA
:1014C000EC0188819981009729F02A813B812617B8
:1014D000370788F48B016F5F7F4F0E94C917009711
:1014E00061F0998388831B830A832C813D81232BA0
:1014F00011F4FC01108281E001C080E0DF91CF9106
:101500001F910F910895CF93DF93EC01888199810A
:10151000009711F00E943117198218821D821C82D7
:101520001B821A82DF91CF91089590E0FC01E85967
:10153000FF4F3491FC01EC55FF4F2491FC01E05723
:10154000FF4FE491EE2309F43BC0332339F13330EC
:1015500091F038F43130A9F0323001F584B58F7D47
:1015600012C0373091F03830A1F03430B9F48091A6
:1015700080008F7D03C0809180008F7780938000F2
:101580000DC084B58F7784BD09C08091B0008F777E
:1015900003C08091B0008F7D8093B000F0E0EE0F2B
:1015A000FF1FE458FF4FA591B4918FB7F894EC91C9
:1015B000611103C020952E2301C02E2B2C938FBFC9
:1015C0000895CF93DF93EC0160E08E810E94950A2D
:1015D00061E08E810E94950A60E08E810E94950AEA
:1015E0008BE891E00197F1F7DF91CF9108958F9209
:1015F0009F92AF92BF92CF92DF92EF92FF926B01D8
:101600007C010E94310A4B015C01C114D104E10448
:10161000F104F1F00E94310ADC01CB01881999092B
:10162000AA09BB09883E9340A105B10570F321E0EA
:10163000C21AD108E108F10888EE880E83E0981EEE
:10164000A11CB11CC114D104E104F10419F7DDCFD0
:10165000FF90EF90DF90CF90BF90AF909F908F90D2
:1016600008952FB7F8946091D5047091D6048091B5
:10167000D7049091D8042FBF08951F920F920FB6F0
:101680000F9211242F933F938F939F93AF93BF9308
:101690008091D5049091D604A091D704B091D8043C
:1016A0003091D40423E0230F2D3720F40196A11D9F
:1016B000B11D05C026E8230F0296A11DB11D209380
:1016C000D4048093D5049093D604A093D704B09308
:1016D000D8048091D9049091DA04A091DB04B091F0
:1016E000DC040196A11DB11D8093D9049093DA0406
:1016F000A093DB04B093DC04BF91AF919F918F91D5
:101700003F912F910F900FBE0F901F901895CF9281
:10171000DF92EF92FF920F931F93CF93DF937C01A1
:101720006C0187E0C80ED11CC0E0D0E0062F10E0AD
:10173000B8010C2E02C0759567950A94E2F76170A6
:10174000F60181916F010E94950A2196C430D1055E
:1017500079F7C701DF91CF911F910F91FF90EF9023
:10176000DF90CF900C94E10ACF92DF92EF92FF923C
:101770000F931F93CF93DF93EC01F62E642F8C8190
:101780000E94950A8D818F3F19F060E00E94950AB2
:101790008F850F2D10E084FF25C06E0187E0C80EF5
:1017A000D11CE12CF12CB8010E2C02C07595679567
:1017B0000A94E2F76170F60181916F010E94950A27
:1017C000FFEFEF1AFF0A88E0E816F10461F7CE0197
:1017D000DF91CF911F910F91FF90EF90DF90CF900D
:1017E0000C94E10AB80184E0759567958A95E1F754
:1017F000CE010E94870B6F2DCE01DF91CF911F91FB
:101800000F91FF90EF90DF90CF900C94870B41E009
:101810000E94B40B81E090E0089540E00C94B40B7A
:1018200061E00E940D0C8BE39FE10197F1F70895B1
:10183000E091F404F091F5040190F081E02D682F1F
:1018400084EF94E00994009769F0FC010190002076
:10185000E9F73197AF01481B590BBC0184EF94E0C5
:101860000C94060A80E090E0089590E0FC01EC55AD
:10187000FF4F2491FC01E057FF4F8491882399F09A
:1018800090E0880F991FFC01EA57FF4FA591B49192
:10189000FC01E458FF4F859194918FB7F894EC9137
:1018A000E22BEC938FBF0895EF92FF920F931F935B
:1018B000CF93DF93EC01623018F08F8588608F87BB
:1018C0006B8B1C8A80E48D8B80E18E8B80E58F8B07
:1018D0008C810E94350C8D818F3F11F00E94350C58
:1018E0008E810E94350C7E0187E0E80EF11C00E03D
:1018F00010E08F8584FD03C084E090E002C088E0A2
:1019000090E00817190744F4F70181917F010E94C4
:10191000350C0F5F1F4FEDCF8BE39DE00197F1F783
:1019200060E08C810E94950A60E08E810E94950A99
:101930008D818F3F19F060E00E94950A6F8564FDEC
:101940001DC063E0CE010E94870B0BE416E4C801C2
:101950000197F1F763E0CE010E94870BC801019760
:10196000F1F763E0CE010E94870B83E592E00197D7
:10197000F1F762E0CE010E94870B16C06062CE01D3
:101980000E940D0C8BE496E40197F1F76F8560627D
:10199000CE010E940D0C83E592E00197F1F76F856F
:1019A0006062CE010E940D0C6F856062CE010E94C4
:1019B0000D0C84E0888B6CE0CE010E940D0CCE01F2
:1019C0000E94100C82E0898B66E0CE01DF91CF91FE
:1019D0001F910F91FF90EF900C940D0C80E4809379
:1019E0007C0080917A00806480937A0080917A00F4
:1019F00086FDFCCF809178002091790090E0922BB9
:101A00000895EF92FF920F931F93CF93DF931F924E
:101A1000CDB7DEB7162F877028E0829FC001112452
:101A2000682F606484EF94E079830E940D0CE12EAE
:101A30007981F72E8701085F1F4FF70161917F01C0
:101A400084EF94E00E94070CE016F106B1F70F90C6
:101A5000DF91CF911F910F91FF90EF9008950C941B
:101A6000230C643008F063E090910705691710F0CB
:101A70006FEF690FE62FF0E0EC50FB4F9489682F71
:101A8000690F606884EF94E00C940D0C8F929F9224
:101A9000AF92BF920F931F93CF93DF93CDB7DEB773
:101AA000A1970FB6F894DEBF0FBECDBF19A242308A
:101AB00008F44AE08E010F5D1F4F842E912CA12C5B
:101AC000B12CA50194010E942515E62FB901CA0188
:101AD00001501109EA3014F4E05D01C0E95CD8015D
:101AE000EC93232B242B252B61F7C8010E94230C98
:101AF000A1960FB6F894DEBF0FBECDBFDF91CF9198
:101B00001F910F91BF90AF909F908F900895CF92AB
:101B1000DF92EF92FF92CF93DF936C01990FEE0863
:101B2000FF08F7FE17C08DE20E94180CEC01662733
:101B30007727CB016C197D098E099F094AE00E9425
:101B4000460D8C0F9D1FDF91CF91FF90EF90DF909E
:101B5000CF9008954AE0C701B601DF91CF91FF9081
:101B6000EF90DF90CF900C94460D4F925F926F9262
:101B70007F928F929F92AF92BF92CF92DF92EF921D
:101B8000FF926B017C01B42E9B01AC010E9469168F
:101B9000882319F080E794E027C026013701E894F4
:101BA00077F82FEF3FEF4FE75FE7C301B2010E94E5
:101BB000691681110DC02FEF3FEF4FE75FE7C301BB
:101BC000B2010E94981318161CF484E794E00CC02C
:101BD0002FEF3FEF4FE75FE4C701B6010E946416A5
:101BE000181684F488E794E0FF90EF90DF90CF9090
:101BF000BF90AF909F908F907F906F905F904F902D
:101C00000C94230C2FEF3FEF4FE75FECC701B601B9
:101C10000E94981387FDE6CF20E030E0A901C701BC
:101C2000B6010E94981387FF09C08DE20E94180C2C
:101C30004C01F7FAF094F7F8F09402C0812C912C43
:101C4000A12C60E070E080E09FE3AB1441F020E065
:101C500030E040E251E40E94C315A394F6CF9B010B
:101C6000AC01C701B6010E9457152B013C010E942F
:101C700035166B017C010E949D139B01AC01C301D1
:101C8000B2010E9456152B013C014AE0C701B60182
:101C90000E94460D7C01E80CF91CBB2029F08EE265
:101CA0000E94180CE80EF91EDB2CDD2021F120E04B
:101CB00030E040E251E4C301B2010E94FE132B0167
:101CC0003C010E9435164B01A12CB12C4AE0C50104
:101CD000B4010E94460DE80EF91EC501B4010E9430
:101CE0009D139B01AC01C301B2010E9456152B014B
:101CF0003C01DA94DACFC701FF90EF90DF90CF90EC
:101D0000BF90AF909F908F907F906F905F904F901B
:101D10000895789484B5826084BD84B5816084BD63
:101D200085B5826085BD85B5816085BD80916E0079
:101D3000816080936E0010928100809181008260AA
:101D400080938100809181008160809381008091E7
:101D500080008160809380008091B10084608093D6
:101D6000B1008091B00081608093B00080917A00D2
:101D7000846080937A0080917A00826080937A00F8
:101D800080917A00816080937A0080917A008068E7
:101D900080937A001092C10062E084EF94E00E9488
:101DA000540C6CE471E081E00E94010D64E471E088
:101DB00082E00E94010D6CE371E083E00E94010D5E
:101DC0006DED74E080E00E94010D64E371E084E059
:101DD0000E94010DC0E0D0E00E94310B0091D004C0
:101DE0001091D1042091D2043091D304DC01CB01B5
:101DF000801B910BA20BB30B84369105A105B10595
:101E000078F00E94310B6093D0047093D1048093DA
:101E1000D2049093D3048091F3048F5F8093F304F2
:101E20008091F30481110FC060E00E94310D89EBB5
:101E300093E00E942F0D61E080E00E94310D8AEC5A
:101E400093E00E942F0D8091F3048A3081F460E0CA
:101E500080E00E94310D8BED93E00E942F0D61E038
:101E600080E00E94310D8CEE93E00E942F0D809156
:101E7000F304833129F484EF94E00E94100C0AC02B
:101E8000843141F460E080E00E94310D8DEF93E0F9
:101E90000E942F0D8091F3048E3111F41092F304FF
:101EA0000E94EE0C8A309105A4F484EF94E00E9425
:101EB000100C60E080E00E94310D8DE094E00E9403
:101EC0002F0D68EE73E080E090E00E94F70A0E9418
:101ED00046018E3691050CF03DC384EF94E00E94DC
:101EE000100C62E084EF94E00E94540C8DE00E949C
:101EF000350C60E08DE00E94950AC3E0D0E060E020
:101F000082E00E94310D8EE194E00E942F0D61E08D
:101F100084E00E94310D8BE294E00E942F0D64EF6B
:101F200071E080E090E00E94F70A84EF94E00E9464
:101F3000100C64EF71E080E090E00E94F70A2197B6
:101F4000F1F6C0E1DEE00CE310E00E94EE0C9093AD
:101F5000E6048093E504893E23E092078CF4823303
:101F600091058CF0833C91058CF08C3721E0920731
:101F700084F08B3222E092077CF0863193407CF033
:101F800025E030E00EC020E030E00BC021E030E082
:101F900008C022E030E005C023E030E002C024E0C9
:101FA00030E03093F2042093F1048091EF0490919B
:101FB000F0042330310509F446C04CF421303105DA
:101FC00009F44AC02230310509F4B9C008C02430F0
:101FD000310509F490C12530310509F468C2893012
:101FE000910549F41092EE041092ED041092EC0465
:101FF0001092EB04AACF09970CF0A7CF8091ED04C3
:102000009091EE0401968C33910529F09093EE04A3
:102010008093ED040DC01092EE041092ED048091B7
:10202000EB049091EC0401969093EC048093EB0404
:102030008091EB049091EC04CC97B1F51092EC04F4
:102040001092EB0431C001968A30910549F19093CA
:10205000F0048093EF0428C08930910519F289308B
:1020600091050CF072CF2091EB043091EC042F5FBE
:102070003F4F2C33310529F03093EC042093EB04CF
:1020800009C01092EC041092EB0401969093F004B6
:102090008093EF048091EF049091F004CC9721F4A9
:1020A0001092F0041092EF046AEF70E080E090E08C
:1020B0000E94F70A60E080E00E94310D81E394E025
:1020C0000E942F0D61E084E00E94310D8091EF04A9
:1020D0009091F0040A9724F481E494E00E942F0D7B
:1020E0008091EF049091F0040E94870D8EE192E0C0
:1020F0000E942F0D8091EB049091EC040A9724F438
:1021000081E494E00E942F0D8091EB049091EC0407
:102110000E94870D8EE192E00E942F0D8091ED04C8
:102120009091EE040A9724F481E494E00E942F0D2C
:102130008091ED049091EE040E94870D06CF2091CE
:10214000EB043091EC046CE3629FA001639F500D9F
:1021500011242091ED043091EE04420F531F8C9F07
:1021600090018D9F300D9C9F300D1124CA01820F6C
:10217000931F9093EA048093E904E090E904F090BF
:10218000EA041E141F040CF0E0CE61E070E080E071
:1021900090E00E94F70A8091E7049091E80401968C
:1021A0009093E8048093E704883E934009F06CC064
:1021B0001092E8041092E70461E08DE00E94950A15
:1021C0009701215031093093EA042093E904C901B1
:1021D000BE010E946E167093F0046093EF04C90173
:1021E000B8010E946E169C01CB01B8010E946E16C8
:1021F0009093EC048093EB043093EE042093ED0471
:1022000060E080E00E94310D83E494E00E942F0D95
:1022100061E084E00E94310D8091EF049091F00420
:102220000A9724F481E494E00E942F0D8091EF043A
:102230009091F0040E94870D8EE192E00E942F0D94
:102240008091EB049091EC040A9724F481E494E0EB
:102250000E942F0D8091EB049091EC040E94870D59
:102260008EE192E00E942F0D8091ED049091EE049A
:102270000A9724F481E494E00E942F0D8091ED04EC
:102280009091EE040E94870D8091E9049091EA04F8
:10229000892B09F072CF60E08DE00E94950A93E0EF
:1022A000E92EF12C84EF94E00E94100C60E085E0B0
:1022B0000E94310D83E594E00E942F0D61E083E0E0
:1022C0000E94310D8AE594E00E942F0D64EF71E0C9
:1022D00080E090E00E94F70A84EF94E00E94100CE6
:1022E00064EF71E080E090E00E94F70A81E0E81A74
:1022F000F108C1F642CF2091EB043091EC046CE37D
:10230000629FA001639F500D11242091ED04309134
:10231000EE04420F531F8C9F90018D9F300D9C9FA8
:10232000300D1124CA01820F931F9093EA04809309
:10233000E904E090E904F090EA041E141F040CF094
:1023400004CE61E070E080E090E00E94F70A8091A6
:10235000E7049091E80401969093E8048093E704E1
:10236000883E934009F06CC01092E8041092E70494
:1023700061E08DE00E94950A970121503109309368
:10238000EA042093E904C901BE010E946E1670930D
:10239000F0046093EF04C901B8010E946E169C011D
:1023A000CB01B8010E946E169093EC048093EB046D
:1023B0003093EE042093ED0460E080E00E94310D44
:1023C00083E494E00E942F0D61E084E00E94310DCF
:1023D0008091EF049091F0040A9724F481E494E052
:1023E0000E942F0D8091EF049091F0040E94870DC0
:1023F0008EE192E00E942F0D8091EB049091EC040D
:102400000A9724F481E494E00E942F0D8091EB045C
:102410009091EC040E94870D8EE192E00E942F0DB6
:102420008091ED049091EE040A9724F481E494E005
:102430000E942F0D8091ED049091EE040E94870D73
:102440008091E9049091EA04892B09F072CF60E051
:102450008DE00E94950A83E0E82EF12C84EF94E051
:102460000E94100C60E085E00E94310D83E594E04D
:102470000E942F0D61E083E00E94310D8AE594E017
:102480000E942F0D64EF71E080E090E00E94F70A57
:1024900084EF94E00E94100C64EF71E080E090E023
:1024A0000E94F70A81E0E81AF108C1F642CF0997C5
:1024B00041F41092EE041092ED041092EC0410928C
:1024C000EB0460E080E00E94310D81E394E00E9423
:1024D0002F0D61E084E00E94310D8091EF04909116
:1024E000F0040A9724F481E494E00E942F0D809177
:1024F000EF049091F0040E94870D8EE192E00E941B
:102500002F0D8091EB049091EC040A9724F481E460
:1025100094E00E942F0D8091EB049091EC040E94B6
:10252000870D8EE192E00E942F0D8091ED04909135
:10253000EE040A9724F481E494E00E942F0D809128
:10254000ED049091EE040E94870D60E08DE00E9402
:10255000950AFBCC893021E092073CF484EF94E0AB
:102560000E94100C0E94280226C0843A21E09207A3
:102570003CF484EF94E00E94100C0E9454081BC0AD
:102580008A389240C4F484EF94E00E94100C60E01A
:1025900080E00E94310D85E694E00E942F0D60EDF1
:1025A00077E080E090E00E94F70A84EF94E00E94D8
:1025B000100C0E945105209709F40ECC0E940000D7
:1025C0000BCCE4EFF4E0138212828AE791E091836E
:1025D000808388E084838DE0858389E0868384E03E
:1025E000878385E0808786E0818787E082871386FE
:1025F000148615861686178661E0CF010E94540C5A
:102600008EE690E09093CF048093CE0408958F924D
:102610009F92AF92BF92CF92DF92EF92FF92CF93B1
:10262000DF93EC01688179818A819B816115710555
:102630008105910521F464E279ED8BE597E02DE1C8
:1026400033EF41E050E00E94BC1449015A019B0164
:10265000AC01A7EAB1E40E94DB146B017C01ACEE93
:10266000B4EFA50194010E94E914DC01CB018C0DAB
:102670009D1DAE1DBF1DB7FF03C00197A109B04846
:1026800088839983AA83BB83BC01CD019F77DF91A7
:10269000CF91FF90EF90DF90CF90BF90AF909F9041
:1026A0008F9008950E940713089584E591E00E9499
:1026B0000713089560935401709355018093560158
:1026C000909357010895BB274A3031F4992322F49F
:1026D000BDE2909581959F4F0C946F13BB27FB0132
:1026E0005527AA27880F991FAA1FA41710F0A41B0B
:1026F00083955051B9F7A05DAA3308F0A95DA19365
:10270000009779F7B111B1931192CB010C94881312
:10271000DC01FC01672F71917723E1F7329704C048
:102720007C916D9370836291AE17BF07C8F30895D3
:102730000E94DA1308F481E00895E89409C097FB39
:102740003EF490958095709561957F4F8F4F9F4F88
:102750009923A9F0F92F96E9BB279395F6958795CC
:1027600077956795B795F111F8CFFAF4BB0F11F48F
:1027700060FF1BC06F5F7F4F8F4F9F4F16C0882336
:1027800011F096E911C0772321F09EE8872F762F6C
:1027900005C0662371F096E8862F70E060E02AF0AD
:1027A0009A95660F771F881FDAF7880F9695879599
:1027B00097F90895990F0008550FAA0BE0E8FEEF6E
:1027C00016161706E807F907C0F012161306E407F5
:1027D000F50798F0621B730B840B950B39F40A26EE
:1027E00061F0232B242B252B21F408950A2609F4CC
:1027F000A140A6958FEF811D811D08950E9411149F
:102800000C9482140E94741438F00E947B1420F0FF
:10281000952311F00C946B140C94711411240C94E6
:10282000B6140E94931470F3959FC1F3950F50E076
:10283000551F629FF001729FBB27F00DB11D639F72
:10284000AA27F00DB11DAA1F649F6627B00DA11D18
:10285000661F829F2227B00DA11D621F739FB00DBE
:10286000A11D621F839FA00D611D221F749F33272E
:10287000A00D611D231F849F600D211D822F762FC7
:102880006A2F11249F5750409AF0F1F088234AF0A4
:10289000EE0FFF1FBB1F661F771F881F9150504010
:1028A000A9F79E3F510580F00C946B140C94B6145C
:1028B0005F3FE4F3983ED4F3869577956795B79597
:1028C000F795E7959F5FC1F7FE2B880F911D9695B1
:1028D000879597F9089597F99F6780E870E060E021
:1028E00008959FEF80EC089500240A9416161706A9
:1028F00018060906089500240A94121613061406F1
:1029000005060895092E0394000C11F4882352F053
:10291000BB0F40F4BF2B11F460FF04C06F5F7F4F0B
:102920008F4F9F4F089557FD9058440F551F59F0F2
:102930005F3F71F04795880F97FB991F61F09F3FAC
:1029400079F087950895121613061406551FF2CFD5
:102950004695F1DF08C0161617061806991FF1CF25
:1029600086957105610508940895E894BB2766274C
:102970007727CB0197F90895052E97FB1EF4009455
:102980000E94D31457FD07D00E94251507FC03D0E1
:102990004EF40C94D31450954095309521953F4FAB
:1029A0004F4F5F4F089590958095709561957F4F3B
:1029B0008F4F9F4F08950E944715A59F900DB49F7C
:1029C000900DA49F800D911D11240895B7FF0C94C4
:1029D000DB140E94DB14821B930B08952F923F920D
:1029E0004F925F926F927F928F929F92AF92BF921F
:1029F000CF92DF92EF92FF920F931F93CF93DF93CB
:102A0000CDB7DEB7CA1BDB0B0FB6F894DEBF0FBE27
:102A1000CDBF09942A88398848885F846E847D8474
:102A20008C849B84AA84B984C884DF80EE80FD8076
:102A30000C811B81AA81B981CE0FD11D0FB6F894EC
:102A4000DEBF0FBECDBFED010895A1E21A2EAA1B75
:102A5000BB1BFD010DC0AA1FBB1FEE1FFF1FA2174E
:102A6000B307E407F50720F0A21BB30BE40BF50B4B
:102A7000661F771F881F991F1A9469F760957095D4
:102A8000809590959B01AC01BD01CF010895A29F57
:102A9000B001B39FC001A39F700D811D1124911D32
:102AA000B29F700D811D1124911D08955058BB27B0
:102AB000AA270E946E150C9482140E94741438F098
:102AC0000E947B1420F039F49F3F19F426F40C94F3
:102AD00071140EF4E095E7FB0C946B14E92F0E943F
:102AE000931458F3BA17620773078407950720F009
:102AF00079F4A6F50C94B5140EF4E0950B2EBA2FCC
:102B0000A02D0B01B90190010C01CA01A0011124F3
:102B1000FF27591B99F0593F50F4503E68F11A169F
:102B2000F040A22F232F342F4427585FF3CF469530
:102B300037952795A795F0405395C9F77EF41F1652
:102B4000BA0B620B730B840BBAF09150A1F0FF0F1C
:102B5000BB1F661F771F881FC2F70EC0BA0F621F08
:102B6000731F841F48F4879577956795B795F795F8
:102B70009E3F08F0B0CF9395880F08F09927EE0F8D
:102B80009795879508950E94D7150C9482140E94FA
:102B90007B1458F00E94741440F029F45F3F29F030
:102BA0000C946B1451110C94B6140C9471140E9473
:102BB000931468F39923B1F3552391F3951B550BA7
:102BC000BB27AA2762177307840738F09F5F5F4F00
:102BD000220F331F441FAA1FA9F335D00E2E3AF03F
:102BE000E0E832D091505040E695001CCAF72BD057
:102BF000FE2F29D0660F771F881FBB1F26173707A8
:102C00004807AB07B0E809F0BB0B802DBF01FF27D9
:102C100093585F4F3AF09E3F510578F00C946B1437
:102C20000C94B6145F3FE4F3983ED4F38695779501
:102C30006795B795F7959F5FC9F7880F911D969592
:102C4000879597F90895E1E0660F771F881FBB1FEE
:102C5000621773078407BA0720F0621B730B840B9B
:102C6000BA0BEE1F88F7E09508950E949B1488F038
:102C70009F5798F0B92F9927B751B0F0E1F0660F40
:102C8000771F881F991F1AF0BA95C9F714C0B13081
:102C900091F00E94B514B1E008950C94B514672F1B
:102CA000782F8827B85F39F0B93FCCF386957795B0
:102CB0006795B395D9F73EF4909580957095619599
:102CC0007F4F8F4F9F4F08950E94DA1308F48FEFC4
:102CD00008950E94DA13880B990B089597FB072E2D
:102CE00016F4009407D077FD09D00E94821607FCE5
:102CF00005D03EF4909581959F4F0895709561950C
:102D00007F4F0895AA1BBB1B51E107C0AA1FBB1F21
:102D1000A617B70710F0A61BB70B881F991F5A9567
:102D2000A9F780959095BC01CD010895EE0FFF1F86
:102D30000590F491E02D0994CF93DF9382309105B3
:102D400010F482E090E0E0910E05F0910F0520E094
:102D500030E0C0E0D0E0309711F140815181481758
:102D60005907C0F04817590761F482819381209771
:102D700019F09B838A832BC090930F0580930E05D7
:102D800026C02115310519F04217530718F49A018E
:102D9000BE01DF01EF010280F381E02DDCCF2115C0
:102DA000310509F1281B390B2430310590F41296B6
:102DB0008D919C9113976115710521F0FB0193830F
:102DC000828304C090930F0580930E05FD01329617
:102DD00044C0FD01E20FF31F81939193225031090A
:102DE0002D933C933AC020910C0530910D05232B77
:102DF00041F420915A0130915B0130930D052093ED
:102E00000C0520915801309159012115310541F4EB
:102E10002DB73EB740915C0150915D01241B350BED
:102E2000E0910C05F0910D05E217F307A0F42E1BBD
:102E30003F0B2817390778F0AC014E5F5F4F24171E
:102E4000350748F04E0F5F1F50930D0540930C055A
:102E50008193919302C0E0E0F0E0CF01DF91CF9148
:102E600008950F931F93CF93DF93009709F48CC0BD
:102E7000FC0132971382128200910E0510910F050A
:102E80000115110581F420813181820F931F20915A
:102E90000C0530910D052817390779F5F0930D05CC
:102EA000E0930C0571C0D80140E050E0AE17BF07B9
:102EB00050F412962D913C911397AD0121153105D7
:102EC00009F1D901F3CF9D01DA01338322836081B7
:102ED0007181860F971F8217930769F4EC0128818F
:102EE0003981260F371F2E5F3F4F318320838A8120
:102EF0009B8193838283452B29F4F0930F05E09304
:102F00000E0542C01396FC93EE931297ED01499182
:102F100059919E01240F351FE217F30771F4808148
:102F20009181840F951F029611969C938E938281B6
:102F3000938113969C938E931297E0E0F0E0D80172
:102F400012968D919C911397009719F0F8018C01BE
:102F5000F6CF8D919C9198012E5F3F4F820F931F6A
:102F600020910C0530910D052817390769F4309729
:102F700029F410920F0510920E0502C013821282DE
:102F800010930D0500930C05DF91CF911F910F91C8
:102F90000895A0E0B0E0EFECF7E10C94F214EC013E
:102FA000009721F4CB010E949C16B8C0FC01E60FEB
:102FB000F71F9C0122503109E217F30708F4ACC057
:102FC000D9010D911C91119706171707B0F0053024
:102FD000110508F49FC0C80104978617970708F4E5
:102FE00099C002501109061B170B019311936D93A1
:102FF0007C93CF010E9431178DC05B01A01AB10AEA
:103000004C01800E911EA0910E05B0910F0540E07D
:1030100050E0E12CF12C109709F44AC0A815B9052D
:10302000D1F56D907C901197630182E0C80ED11CA0
:10303000CA14DB0480F1A3014A195B096A0182E02A
:10304000C80ED11C1296BC9012971396AC91B5E0A5
:10305000CB16D10440F0B282A38351834083D901BF
:103060006D937C930AC00E5F1F4FC301800F911FA9
:10307000F90191838083EB2DFA2FE114F10431F0F3
:10308000D7011396FC93EE93129744C0F0930F056B
:10309000E0930E053FC08D919C91119748175907F9
:1030A00008F4AC017D0112960D90BC91A02DB3CF18
:1030B00080910C0590910D0588159905E1F446174E
:1030C0005707C8F48091580190915901009741F435
:1030D0008DB79EB740915C0150915D01841B950BAB
:1030E000E817F907C8F4F0930D05E0930C05F90112
:1030F000718360830FC0CB010E949C167C010097F6
:1031000059F0A801BE010E949818CE010E94311703
:10311000C70104C0CE0102C080E090E0CDB7DEB7A9
:10312000EEE00C940E1581E090E0F8940C94A81851
:10313000FB01DC0102C001900D9241505040D8F7D4
:103140000895FB01DC0101900D920020E1F7089544
:04315000F894FFCF21
:10315400C807001F0E150000000000000000150E37
:103164001F0000150E1F00000000000000000E1FCD
:103174000A00150E0E1500000000000000150E0ECA
:103184001500FFFF0E0E0E1F150E0A1B0404040487
:10319400041F0E040E0E0E150E040A110E0E0E045C
:1031A4001F040A0A0100000000001005800003202B
:1031B40004202003200401200220200120020520F5
:1031C40006202005200600000000070C060A570A06
:1031D400560A6E006400000054706F207472616EB1
:1031E400736375727269646F3A20006820006D2001
:1031F400007320006D73004C4654202D20496E63EB
:103204002F52657365740053454C202D2050617214
:10321400612E7469656D706F0044574E202D2052E5
:10322400657365742F496E6300524854202D2052F3
:10323400657365742F43726F6D00456D70657A61B7
:10324400646F2054706F2E2E2E00204A5545474F30
:103254000020202020202044452053414C544F532B
:10326400007800202047414D45204F5645523A00F2
:10327400202020204C6C65676F20616C202020008A
:103284002020202020204E6976656C2020202020DC
:103294000050657264696F20656C204A7565676FBC
:1032A40000202020204C617374696D610047616EB9
:1032B4006173746520656C204A7565676F00202012
:1032C400202020594F552057494E0020202050726D
:1032D4006573696F6E6100206375616C71756965F2
:1032E40072205445434C4100202020205350414338
:1032F400450020204472697665204D4954590020C8
:10330400596120636172616374656A2059610020A8
:1033140050554E544F530050726573732074656357
:103324006C206375616C71006A7565676120646502
:10333400206E7565766F002020457363617061733C
:10334400746520646520200020204465206C61732E
:10335400206E617665730020202020C2BF46494E4E
:103364003F2000202020202046494E2000204A757E
:1033740065676F2064652000202020202020202005
:1033840020507265736F73004600417472617065FA
:103394006C6F0020417472617061646F2020532E41
:1033A400002053652065736361706F204E2E0020EA
:1033B4002020204C617374696D6120004E4F2050B1
:1033C40055444F202E2E2E0050756E74616A653A56
:1033D400002047616E6F20656C204A7565676F0039
:1033E40020202020596F752057696E2000455843CE
:1033F400454C454E54452121212100505545444515
:10340400204D454A4F52415200312E53454C4543BD
:10341400543D2053706163652E00322E4C45465452
:1034240020203D20507265732E2E00332E444157C8
:103434004E20203D2053616C742E2E00342E5249B0
:10344400474854203D2043726F6E2E2E00352E5572
:1034540050203D2054656D706F722E2E0020202068
:1034640043726F6E6F6D6574726F20202000546517
:103474006D706F72697A61646F72004D495454596A
:1034840000456C69676520656C207469656D706FB3
:103494000030005469656D706F2072657374616EDD
:1034A4007465005469656D706F0046696E616C697E
:1034B4007A61646F002020202020537061636500CE
:0C34C4006E616E00696E66006F76660037
:00000001FF
